:020000040000FA
:1000000000060020F50000001D0100001F01000097
:100010002101000023010000250100000000000074
:1000200000000000000000000000000027010000A8
:1000300029010000000000002B0100002D0100003C
:100040002F0100002F0100002F0100002F010000F0
:100050002F0100002F0100002F0100002F010000E0
:100060002F0100002F0100002F0100002F010000D0
:100070002F0100002F0100002F0100002F010000C0
:100080002F0100002F0100002F0100002F010000B0
:100090002F0100002F0100002F0100002F010000A0
:1000A0002F0100002F0100002F0100002F01000090
:1000B0002F0100002F0100002F0100002F01000080
:1000C0002F0100002F0100002F0100002F01000070
:1000D0002F0100002F0100002F0100002F01000060
:1000E0002F0100002F0100002F0100002F01000050
:1000F0002F01000011481249124B99423CBF50F8A1
:10010000042B41F8042BF8D30F494FF000028B4227
:1001100038BF43F8042BFAD30C480047FEE7FEE74C
:10012000FEE7FEE7FEE7FEE7FEE7FEE7FEE7FEE7A7
:1001300007480849084A094B704700007001000051
:1001400000000020000000200006002061010000E7
:100150000000002000060020000200200002002015
:100160004FF000004FF004014FF0060202EB0103D4
:040000050000016195
:00000001FF
