:020000040000FA
:100000006810002069010000710100007301000008
:100010007501000077010000790100000000000078
:100020000000000000000000000000007B01000054
:100030007D010000000000007F0100008101000040
:1000400083010000830100008301000083010000A0
:100050008301000083010000830100008301000090
:100060008301000083010000830100008301000080
:100070008301000083010000830100008301000070
:100080008301000083010000830100008301000060
:100090000000000000000000000000000000000060
:1000A0000000000000000000000000000000000050
:1000B00083010000000000008301000083010000B4
:1000C00000F002F800F03EF80AA090E8000C82442C
:1000D0008344AAF10107DA4501D100F033F8AFF209
:1000E000090EBAE80F0013F0010F18BFFB1A43F016
:1000F000010318476C0300008C030000103A24BF72
:1001000078C878C1FAD8520724BF30C830C144BF7C
:1001100004680C60704700000023002400250026BE
:10012000103A28BF78C1FBD8520728BF30C148BF5A
:100130000B6070471FB50FBC00F014F80FB41FBD63
:1001400010B510BD00F033F81146FFF7F3FF00F0D3
:1001500061F900F051F803B4FFF7F2FF03BC00F0BF
:1001600059F8000000F06DB8094880470948004779
:10017000FEE7FEE7FEE7FEE7FEE7FEE7FEE7FEE757
:10018000FEE7FEE704480549054A064B70470000B4
:1001900041040000C1000000680000206810002039
:1001A000680C0020680C0020704770477047754647
:1001B00000F02CF8AE4605006946534620F00700D3
:1001C000854618B020B5FFF7DDFFBDE820404FF0B1
:1001D00000064FF000074FF000084FF0000B21F031
:1001E0000701AC46ACE8C009ACE8C009ACE8C009FE
:1001F000ACE8C0098D46704710B50446AFF30080E7
:100200002046BDE81040FFF7A6BF00000048704739
:100210000400002001491820ABBEFEE726000200C2
:100220000246C91C21F00301D2E900031B1A8B42CC
:1002300001D2002070470144C91D21F0070111605F
:1002400070472DE9F34F83B000274FF48074BA460E
:1002500003A821468DF80070FFF7E2FF5FEA00086F
:1002600001D100F083F82146404600F070F8060006
:1002700009D04FF0010B4546C14616F8014B8FB12E
:100280005C2C16D01CE008F108004146C8F80000BC
:100290000020C8F80400D8F800402070012005B004
:1002A000BDE8F08F222C01D0272C0FD12746BA466B
:1002B0002CE03078222807D05C2805D0272803D0EE
:1002C000BC4203D1002721E0761C04464CB12FB973
:1002D000202C06D0A4F10900042802D905F8014B0E
:1002E000CBE74D4502D1BAF1000F0FD05246494637
:1002F000002005F8010B6846AFF300809DF8000070
:1003000070B14D464FF0000A0BF1010B002CB4D137
:100310004FEA8B0103A8FFF783FF040002D004E03B
:10032000A946EFE7002000F021F800204246C4F87B
:10033000008005E012F8011B11B9401C44F8202090
:10034000AA42F7D3002144F820102146A7E71CB5A4
:100350000446CDE9000169461520ABBE08B1002076
:100360001CBD20461CBD70477047704710B500F09B
:1003700009F8BDE81040AFF30080002801D0FFF776
:1003800049BF704710B5012805D0002103A000F037
:1003900021F8012010BD09A1F8E700005349475298
:1003A000544D454D3A204F7574206F662068656145
:1003B00070206D656D6F7279000000003A2048650D
:1003C0006170206D656D6F727920636F72727570E8
:1003D0007465640070B505460C460A2000E06D1C8B
:1003E00000F011F835B128780028F8D102E0641C3B
:1003F00000F009F814B120780028F8D1BDE8704069
:100400000A20AFF3008008B569468DF8000003208C
:10041000ABBE08BD00F009F85465787420746F20F5
:100420007072696E740A0D0011DF1EF8010B00284E
:1004300018BF00DFF9D10EF1030E2EF0030EF746C0
:1004400003480449086004480449086070470000F4
:100450000000000008ED00E040787D010000002071
:10046000800400000000002004000000FC000000E8
:100470008404000004000020641000001801000043
:0404800040787D0142
:0400000500000000F7
:00000001FF
